:100000000C945C000C9479000C9479000C947900A9
:100010000C9479000C9479000C9479000C9479007C
:100020000C9479000C9479000C9479000C9479006C
:100030000C9479000C9479000C9479000C9479005C
:100040000C94AD010C9479000C9479000C94790017
:100050000C9479000C9479000C9479000C9479003C
:100060000C9479000C947900000000002400270013
:100070002A0000000000250028002B0004040404CE
:100080000404040402020202020203030303030342
:10009000010204081020408001020408102001021F
:1000A00004081020000000080002010000030407FB
:1000B000000000000000000011241FBECFEFD8E0B8
:1000C000DEBFCDBF11E0A0E0B1E0EAE6F6E002C09D
:1000D00005900D92A030B107D9F721E0A0E0B1E082
:1000E00001C01D92AB30B207E1F70E94F7010C94FA
:1000F00033030C94000090E0FC01EC55FF4F249179
:10010000FC01E057FF4F3491FC01E458FF4FE491AC
:10011000EE23C9F0222339F0233001F1A8F4213075
:1001200019F1223029F1F0E0EE0FFF1FEE58FF4FDA
:10013000A591B4918FB7F894EC91611126C03095D8
:100140003E233C938FBF08952730A9F02830C9F093
:10015000243049F7809180008F7D03C0809180001A
:100160008F7780938000DFCF84B58F7784BDDBCF1E
:1001700084B58F7DFBCF8091B0008F778093B000E6
:10018000D2CF8091B0008F7DF9CF3E2BDACFCF93C5
:10019000DF9390E0FC01E057FF4F249184589F4F7C
:1001A000FC0184918823D1F090E0880F991FFC0115
:1001B000E859FF4FA591B491FC01EE58FF4FC5914E
:1001C000D49161110EC09FB7F8948C91E22FE09505
:1001D0008E238C932881E223E8839FBFDF91CF9108
:1001E00008958FB7F894EC91E22BEC938FBFF6CF84
:1001F0001F93CF93DF93182FEB0161E00E94C7009C
:10020000209739F460E0812FDF91CF911F910C94FA
:100210007B00CF3FD10511F461E0F5CFE12FF0E095
:10022000EC55FF4FE491E33031F140F4E130B1F0AF
:10023000E230E1F0C038D1057CF7E4CFE73029F1B6
:10024000E83059F1E430B1F780918000806280930A
:100250008000D0938B00C0938A0004C084B580686E
:1002600084BDC7BDDF91CF911F91089584B5806291
:1002700084BDC8BDF7CF80918000806880938000E6
:10028000D0938900C0938800EDCF8091B000806842
:100290008093B000C093B300E5CF8091B00080623E
:1002A0008093B000C093B400DDCF3FB7F894809145
:1002B000050190910601A0910701B091080126B5B2
:1002C000A89B05C02F3F19F00196A11DB11D3FBF8E
:1002D000BA2FA92F982F8827BC01CD01620F711D5D
:1002E000811D911D42E0660F771F881F991F4A9557
:1002F000D1F708958F929F92AF92BF92CF92DF92E3
:10030000EF92FF926B017C010E9455014B015C0151
:10031000C114D104E104F104B9F00E945501681937
:1003200079098A099B09683E73408105910580F32C
:1003300021E0C21AD108E108F10888EE880E83E0B6
:10034000981EA11CB11CE4CFFF90EF90DF90CF90DE
:10035000BF90AF909F908F9008951F920F920FB60D
:100360000F9211242F933F938F939F93AF93BF933B
:100370008091010190910201A0910301B0910401CB
:100380003091000123E0230F2D3758F50196A11D70
:10039000B11D209300018093010190930201A0936D
:1003A0000301B09304018091050190910601A09191
:1003B0000701B09108010196A11DB11D80930501AF
:1003C00090930601A0930701B0930801BF91AF91EC
:1003D0009F918F913F912F910F900FBE0F901F9083
:1003E000189526E8230F0296A11DB11DD2CF78944F
:1003F00084B5826084BD84B5816084BD85B582602A
:1004000085BD85B5816085BD80916E0081608093DA
:100410006E00109281008091810082608093810043
:100420008091810081608093810080918000816053
:10043000809380008091B10084608093B1008091AE
:10044000B00081608093B00080917A0084608093D6
:100450007A0080917A00826080937A0080917A009D
:10046000816080937A0080917A00806880937A001E
:100470001092C10061E083E00E94C70061E085E066
:100480000E94C70061E086E00E94C70060E08EE045
:100490000E94C70010E488248A9483E0982EA12C3F
:1004A000B12CC0E0D0E010937C0080917A00806491
:1004B00080937A0080917A0086FDFCCF809178004D
:1004C000A0917900BA2FA82F24E833E00E942C03D2
:1004D000A50194010E94DC0269017A0184E6C80E3C
:1004E000D11CE11CF11CD0920A01C09209016EEAF4
:1004F00070E083E00E94F8006CE570E085E00E9407
:10050000F80066EE70E086E00E94F800C701B601D0
:100510000E947A016FEF70E083E00E94F8006FEFB5
:1005200070E085E00E94F8006FEF70E086E00E94C6
:10053000F800C701B6010E947A0170E060E083E034
:100540000E94F8006FEF70E085E00E94F8006FEF06
:1005500070E086E00E94F800C701B6010E947A01AF
:100560006DEB70E083E00E94F8006EEA70E085E0D9
:100570000E94F80064E170E086E00E94F800C70184
:10058000B6010E947A0161EE70E083E00E94F800FB
:1005900067E570E085E00E94F80063E270E086E0C5
:1005A0000E94F800C701B6010E947A01209709F461
:1005B0007ACF0E94000077CF052E97FB1EF400949F
:1005C0000E94F30257FD07D00E94FB0207FC03D0F4
:1005D0004EF40C94F30250954095309521953F4F81
:1005E0004F4F5F4F089590958095709561957F4F1F
:1005F0008F4F9F4F0895A1E21A2EAA1BBB1BFD012E
:100600000DC0AA1FBB1FEE1FFF1FA217B307E407F1
:10061000F50720F0A21BB30BE40BF50B661F771F49
:10062000881F991F1A9469F7609570958095909529
:100630009B01AC01BD01CF010895A29FB001B39F02
:10064000C001A39F700D811D1124911DB29F700DDB
:10065000811D1124911D08950E941D03B7FF089567
:0A066000821B930B0895F894FFCF5E
:00000001FF
